:020000040800F2
:10000000780800246503000841290008E11E000863
:10001000E926000899040008A12E0008000000004D
:10002000000000000000000000000000712B00082C
:10003000A104000800000000692B0008792B0008CB
:100040008303000883030008830300088303000878
:100050008303000883030008830300088303000868
:100060008303000883030008830300088303000858
:100070008303000883030008830300088303000848
:100080008303000883030008830300088303000838
:100090008303000883030008830300088303000828
:1000A0008303000883030008830300088303000818
:1000B0008303000883030008830300088303000808
:1000C00083030008830300088303000883030008F8
:1000D00083030008830300088303000883030008E8
:1000E0008303000883030008000000008303000866
:1000F00083030008830300088303000883030008C8
:1001000083030008830300088303000883030008B7
:1001100083030008830300088303000883030008A7
:100120008303000883030008830300088303000897
:100130008303000883030008830300088303000887
:1001400000000000000000000000000000000000AF
:100150008303000883030008830300088303000867
:100160008303000883030008830300088303000857
:100170008303000883030008830300088303000847
:100180008303000883030008830300088303000837
:100190008303000883030008830300088303000827
:1001A0008303000883030008830300088303000817
:1001B0008303000883030008830300088303000807
:1001C00083030008830300088303000883030008F7
:1001D00083030008830300088303000883030008E7
:1001E00083030008830300088303000883030008D7
:1001F00083030008830300088303000883030008C7
:1002000083030008830300088303000883030008B6
:1002100083030008830300088303000883030008A6
:100220008303000883030008830300080000000024
:100230008303000883030008000000008303000814
:100240008303000883030008830300088303000876
:100250008303000883030008830300088303000866
:100260008303000883030008830300088303000856
:1002700083030008830300088303000800000000D4
:1002800083030008830300088303000800000000C4
:10029000000000008303000800F002F800F052F8AC
:1002A00014A696E8000CB244B344DA4501D100F03C
:1002B00049F8BAE80F000FA696E83000A5EB040550
:1002C00004EB0607AAEB0704A7F101074FEA15158F
:1002D0004FEA3414A4F10104AC4201D300F032F827
:1002E00013F0010F18BFFB1A43F0010300F001F8EF
:1002F000DBE71847F435000014360000103A24BF3D
:1003000078C878C1FAD8520724BF30C830C144BF7A
:1003100004680C6070470000704700000023002450
:1003200000250026103A28BF78C1FBD8520728BF05
:1003300030C148BF0B6070471FB503F029FA1FBDDD
:1003400010B510BD00F070F81146FFF7F5FF02F090
:10035000ABFD00F08EF803B4FFF7F2FF03BC00F032
:1003600091F800000A4880470A4880470A48004739
:10037000FEE7FEE7FEE7FEE7FEE7FEE7FEE7FEE755
:10038000FEE7FEE705480649064A074B70470000AE
:10039000B9040008612C00089902000878020024C2
:1003A0007808002478040024780400244FF0000228
:1003B00000B5134694469646203922BFA0E80C505B
:1003C000A0E80C50B1F12001BFF4F7AF090728BF36
:1003D000A0E80C5048BF0CC05DF804EB890028BFB2
:1003E00040F8042B08BF704748BF20F8022B11F0DB
:1003F000804F18BF00F8012B704770477047704757
:1004000010B500F009F8006810BD10B5044600F002
:1004100003F8046010BD000000487047100000247D
:1004200000487047100000247546FFF7F9FFAE46FC
:1004300005006946534620F00700854618B020B5F0
:10044000FFF7A0FFBDE820404FF000064FF0000787
:100450004FF000084FF0000BAC46ACE8C009ACE828
:10046000C009ACE8C009ACE8C00921F007018D461D
:10047000704710B50446AFF300802046BDE8104039
:10048000FFF769BF01491820ABBEFEE72600020056
:100490007047000000000000FEE7000000000000C0
:1004A0007047000000000000EFF3108072B600BF3C
:1004B000FEE700000000000044F60400C5F602005C
:1004C000816841F0020181600168890409D40168F2
:1004D00089045CBF01685FEA814102D40168890434
:1004E000F2D57047000000002DE9F04F83B00F688F
:1004F000002F00F0C98000F1264642F2004506F1C7
:10050000FF76C5F602050A22A8424FEAB62540F258
:10051000040C08BF092200F120030093092DC5F641
:10052000000C38BF4FEAB622002400264FF0000826
:1005300001920AE008F101080F6837FA08F206F1A3
:10054000020604F1040400F09F80012202FA08FE72
:1005500017EA0E09EED0D1F804B003220BF003071E
:10056000B2407D1E6FEA020A012D11D88268CD6863
:1005700002EA0A02B5402A438260CBF300154268C2
:1005800022EA0E0205FA08F52A43426004E000BFA1
:10059000032F01D103271FE0C2688D6802EA0A0217
:1005A000B540022F42EA0502C26015D16FF0030286
:1005B00004F01C0502EA580B009A0F2352F80BE0D6
:1005C000AB400F692EEA0303AF403B4342F80B30C8
:1005D000D1F804B00BF00307026807FA06F302EA49
:1005E0000A021BF4403F42EA03020260A2D044F236
:1005F000F44340F2084EC5F60203C5F6000E0F257F
:100600001A6842F002021A601A6802F002020292AC
:1006100028F00302029B04F00C0352F80E709D4078
:10062000AF43019D05FA03F33B4342F80E304FF010
:10063000B04EDEF800204B6842EA0907DD0258BFE1
:1006400022EA09079D02CEF80070DCF8002042EA99
:10065000090758BF22EA09079D03CCF80070DCF8AF
:10066000802042EA090758BF22EA0907DB03CCF8D9
:100670008070DCF87C2042EA090758BF22EA0907AB
:10068000CCF87C7056E700BF03B0BDE8F08F0000E7
:10069000426902EA0103914341EA034181617047E3
:1006A000002A08BF090481617047000000000000B3
:1006B00041F20000C5F600400068000C70470000E1
:1006C00040F27020C2F20040006870470000000055
:1006D00040F2000040F27021C2F20040C2F200413C
:1006E00000780A68104408607047000000000000AD
:1006F00080B5032000F0E8F800F04AFA44F218410F
:1007000043F6D803C5F60201C0F600030A68C2F337
:1007100003229A5C096801F00F0102F01F02595C84
:10072000D04040F20C02C2F2004201F01F0120FA58
:1007300001F1116040F20801C2F2004108600F208F
:1007400000F00AF800281CBF012080BD00F07CF8F2
:10075000002080BD00000000B0B540F20005C2F2EC
:1007600000452978F1B1044640F20800C2F2004089
:100770004FF47A72B2FBF1F10068B0FBF1F000F0D7
:100780004FFD0F2C01464FF001000AD8002918BF79
:10079000B0BD4FF0FF300022214600F065F8002088
:1007A0006C60B0BD0120B0BD10B54EF6A05E4378C0
:1007B000CEF2000E90F800C04EF8083CDEF8003093
:1007C00023F00103CEF8003043684EF8043C037B6D
:1007D000C27A817A447B120642EA0372837B42EA40
:1007E000C141C27B41EA8441447A41EA4341007AF3
:1007F00041EA024141EA042141EA400040EA0C009A
:10080000CEF8000010BD00004EF62450CEF20000DD
:10081000BFF35F8F016821F480310160002101671F
:1008200070470000000000004EF6245140F0010027
:10083000CEF200010867086840F480300860BFF31A
:100840004F8FBFF36F8F704781B044F2F440C5F60D
:100850000200016841F002010160006800F002003E
:100860000090009801B0704770B54EF60C5C4FF0E8
:10087000FF36CEF2000C00F1604505F56445DCF86A
:100880000030C3F3022E8EF00703042B28BF04238D
:10089000BEF1030406FA03F321EA030100F00F039B
:1008A00038BF0024043B0028634406FA04F048BF24
:1008B00003F10C05A14022EA000008430001287062
:1008C00070BD0000000000004EF60C514FF6FF0313
:1008D000CEF200010A681A4060F30A2242F08060FA
:1008E00040F0FD7008607047B0B544F60C05C5F6E1
:1008F000020529684907296806D401F00701081A8A
:1009000018BF0120B0BD00BF21F0070108432860D7
:10091000FFF7D6FE044600BF55F8080C800407D444
:10092000FFF7CEFE001BB0F57A7FF5D90120B0BDF0
:100930000020B0BD000000002DE9F04381B0002888
:1009400000F0208142F200090446C5F20029D9F8DE
:10095000000000F00F0081420DD9D9F8000020F00E
:100960000F000843C9F80000D9F8000000F00F009C
:10097000884240F00781206844F218464207C5F6D5
:1009800002060AD52269336803F070039A4204D93B
:10099000336823F070031A43326002070AD5626994
:1009A000736803F070039A4204D9736823F07003EC
:1009B0001A437260C2060AD5A269736803F4E06341
:1009C0009A4204D9736823F4E0631A437260820682
:1009D0000AD5E269B36803F070039A4204D9B36898
:1009E00023F070031A43B26010F002020AD0E368E9
:1009F000376807F00F07BB4204D9376827F00F07A5
:100A00003B433360C3073FD0306820F47062D4E9C1
:100A100001031A433260012856F8182C0AD0032823
:100A200004D002280AD192030BD4ABE0920108D47F
:100A3000A8E000BFD20504D4A4E000BF520740F1F3
:100A4000A180884656F8081C21F00701084346F8A3
:100A5000080CFFF735FE054641F2883756F8080CBA
:100A6000616800F03800B0EBC10F09D0FFF728FE35
:100A7000401BB842F2D9032001B0BDE8F08300BFAB
:100A80002068414600F0020252B1E268336803F088
:100A90000F039A4204D2336823F00F031A433260E3
:100AA000D9F8002002F00F0291420CD2D9F80020B0
:100AB00022F00F020A43C9F80020D9F8002002F002
:100AC0000F028A425ED141070AD52169326802F0DD
:100AD0007002914204D2326822F0700211433160F8
:100AE00001070AD56169726802F07002914204D26E
:100AF000726822F0700211437160C1060AD5A169C3
:100B0000726802F4E062914204D2726822F4E062F8
:100B10001143716080060AD5E069B16801F0700187
:100B2000884204D2B16821F070010843B06000F03F
:100B30002FF8316843F6D802C0F60002C1F3032152
:100B4000515C336803F00F0301F01F01D25C20FAFF
:100B500001F102F01F0040F20C02C2F2004221FA41
:100B600000F0106040F2040040F20802C2F20040BF
:100B7000C2F200420068116001B0BDE8F043FFF727
:100B8000EBBD00BF012001B0BDE8F0830000000014
:100B900044F20041C5F602010869C0F3C20003280F
:100BA00016D002280ED0002832D10868800649F2FB
:100BB0000000C0F2D03058BF70470968C1F3C101CE
:100BC000C840704741F20020C0F27A00704700BF71
:100BD0008B6A886AD1F82CC04A6BC0F30510E8B163
:100BE000C2F3CC0203F0030300EE102A9FED2A1A91
:100BF000B8EE400A20EE010A9FED281ADFE803F064
:100C0000022110210A6892060ED49FED261A18E0E0
:100C100040F60010C0F23D00704700BF0020704752
:100C20009FED1F1A0DE000BF0A6849F20003C0F2F1
:100C3000D033C2F3C10223FA02F201EE102AB8EE59
:100C4000411A0A6B9FED183A6FF35F2202EE102AE9
:100C50005FEACC7203FE000A03EE100A086BB8EEDE
:100C6000422AC0F34620B8EE433A013030EE020A81
:100C7000B7EE002A81EE031A30EE020A21EE000AD6
:100C800001EE100AB8EE411A80EE010ABCEEC00A6D
:100C900010EE100A704700BF000000390024744AAB
:100CA0000024F44A0024744C0000000000000000FE
:100CB00070B3F0B581B00446007844F20046C00736
:100CC000C5F6020626D12078800740F1C28030693F
:100CD00010F03801B06A3FD0182908BF5FEA807071
:100CE0003AD0E0683168002862D021F01901084349
:100CF0003060FFF7E5FC05463068400748D4FFF751
:100D0000DFFC401B0228F7D9032001B0F0BD00BF73
:100D100001207047306900F03801B06A102905D011
:100D200018290BD100F00300022807D13068800396
:100D3000C9D560680028C6D13CE100BF6168306851
:100D400000294FD0B1F5A02F44D0B1F5803F5FD13D
:100D500040F4803062E000BF30684007E06802D5B0
:100D6000002800F02781316821F019010843306024
:100D7000FFF7A6FC054600BF3068400708D4FFF720
:100D80009FFC401B02284FF00300F5D901B0F0BDD5
:100D9000FFF78EFC41F2030188424FD82069716849
:100DA000402821F47C3151D141F4003050E000BFA3
:100DB00021F001003060FFF783FC054630684007F2
:100DC00047D5FFF77DFC401B02284FF00300F5D903
:100DD000DCE700BF40F480203060306840F48030B1
:100DE0001CE000BF20F480303060306820F48020A8
:100DF0003060FFF765FC0546306880037FF563AF20
:100E0000FFF75EFC401B64284FF00300F4D9BDE7F8
:100E100020F480303060306820F480203060FFF7AC
:100E20004FFC0546306880033FF54DAFFFF748FCA7
:100E3000401B6428F6D9032001B0F0BD7068216919
:100E400020F0FE4040EA016002E000BF41EA0030CD
:100E500070602078C00654D5306900F03801B06A5F
:100E6000082905D0182919D100F00300012815D14F
:100E70003068C00503D5E069802840F09B80FFF70B
:100E800017FC41F2030188421ED8206A71682028AD
:100E900021F0F84132D141F0804031E0E069002892
:100EA000306819D040F080003060FFF709FC05463B
:100EB0003068C005E3D4FFF703FC401B02284FF065
:100EC0000300F5D962E700BFF068216A20F07C508A
:100ED00040EA0160F06014E020F080003060FFF72D
:100EE000EFFB05463068C0050BD5FFF7E9FB401B5B
:100EF00002284FF00300F5D948E700BF41EA8060BF
:100F00007060207800073FD42078800656D420787F
:100F1000400769D4656A9DB3306900F0380018282D
:100F200040F0A880012DB16A306B43D001F003027C
:100F3000A36A9A423ED1C1F30511E26A914239D1C6
:100F40000146226B6FF35F21013A914232D1C0F327
:100F50004622616B01398A422CD1C0F30642A16B53
:100F600001398A4226D1C0F30660E16B013988421B
:100F700020D1706BA16CC0F3CC00814240F0348171
:100F8000002001B0F0BD00BF60690028706F41D043
:100F900040F001007067FFF793FB0546706F800714
:100FA000B2D4FFF78DFB401B0228F7D9032001B014
:100FB000F0BD00BF012001B0F0BD00BFA069002856
:100FC000306845D040F480503060FFF779FB05462B
:100FD000306880049BD4FFF773FB401B0228F7D9CD
:100FE000032001B0F0BD00BFD6F8000440F48070CB
:100FF000C6F80004FFF764FB054600BFD6F80004FE
:10100000C00519D4FFF75CFB401B6428F6D9032008
:1010100001B0F0BD20F001007067FFF751FB0546FD
:10102000706F80077FF570AFFFF74AFB401B022807
:101030004FF00300F4D9A9E6A168306F002943D02E
:10104000052939D0012957D140F001005AE000BFED
:1010500020F480503060FFF733FB05463068800491
:101060007FF555AFFFF72CFB401B02284FF0030024
:10107000F4D98BE6306820F080703060FFF720FBF9
:10108000022D05460CD100BF306880014CD5FFF71A
:1010900017FB401B02284FF00300F5D976E600BF8E
:1010A000306880017FF56CAFFFF70AFB401B022818
:1010B0004FF00300F4D969E640F004003067306F68
:1010C00040F001001EE000BF20F001003067306FEB
:1010D00020F004003067FFF7F3FA054641F2883745
:1010E000306F80077FF516AFFFF7EAFA401BB84272
:1010F0004FF00300F4D949E620F001003067306F6B
:1011000020F004003067FFF7DBFA054641F288372C
:10111000306F80073FF5FEAEFFF7D2FA401BB842B2
:101120004FF00300F4D931E604F12807B06A40F229
:10113000F33188438ECF0843591E40EA02104FF422
:101140007E426FF35F21B06202EB47204FF4FE0254
:1011500080B2E36B0844A16B02EB01414FF0FE4209
:1011600001F4FE0102EB0362084402F0FE41084470
:101170003063F06A4FF6F87120F00100F062706B96
:10118000A26C884340EAC2007063F06A216C20F0D0
:101190000C000843F062F06A616C20F00200084322
:1011A000F062F06A40F48030F062F06A40F400309F
:1011B000F062F06A40F48020F062F06A40F00100D2
:1011C000F062306840F080703060FFF779FA0446D2
:1011D000306880013FF5D4AEFFF772FA001B022899
:1011E0004FF00300F4D9D1E5F06A20F00100F0627D
:1011F000FFF766FA0546FFF763FAA842FBD0706B6B
:101200004FF6F871A26C884340EAC2007063F06A3E
:1012100040F00100F062002001B0F0BD00000000CD
:10122000411E0020B0EB116F02D00120704700BFBB
:101230004EF21002F023CEF2000251604EF623511E
:10124000CEF200010B700721906011607047000022
:1012500090F83C20012A4FF002025ED0B0B580F831
:101260003D2040F2004C0268C4F2010C42F480635D
:1012700063455368D2F808E002BF23F470034C685A
:10128000234341F2FF740D68C4F2000423F070039D
:10129000A24243EA050353600CDC40F2FF73C4F240
:1012A00000039A4216DCB2F1804F29D040F200438D
:1012B00018E000BF40F2FF33C4F201039A4217DC8A
:1012C00041F60003C4F200039A4219D00023C4F28D
:1012D000010309E040F60003C4F200039A420FD074
:1012E00040F60043C4F200039A4209D00DE000BF6B
:1012F00044F20003C4F201039A4201D0624504D1D2
:101300002EF080038968194391600022012180F842
:101310003D1080F83C20BDE8B0401046704700000A
:1013200060B310B5044690F83D0028B9002084F859
:101330003C00204600F024F8022084F83D0020689C
:10134000211D01F005FD012084F8480084F83E00CD
:1013500084F83F0084F8400084F8410084F842009B
:1013600084F8430084F8440084F8450084F846007B
:1013700084F8470084F83D00002010BD012070472C
:101380000068B0F1804F18BF704781B044F2E84068
:10139000C5F60200016841F001010160006800F03B
:1013A00001000090009801B07047000000000000AC
:1013B00090F83C20012A4FF0020200F0AA8080B58C
:1013C00080F83D208822D0F800C0CFF6CE72DCF83D
:1013D00008301A40CCF808200B686F2B0EDDB3F1F3
:1013E000101F37DAB3F5005F6EDA702B00F0B680AD
:1013F000B3F5805F00F08480D8E000BF2F2B33DD91
:101400004F2B39DC302B6FD0402B40F0CF80D1F800
:1014100004E0C968DCF82030DCF8202022F001026A
:10142000CCF82020DCF8182022F0F00242EA01116A
:1014300023F00A02CCF8181042EA0E01CCF8201072
:101440004FF68872DCF80810CFF6CF7211404731A2
:1014500054E000BF2F21C0F210018B423ADCB3F1FF
:10146000101F41D020213BE0002B18BF102B3BD098
:10147000202B39D09AE000BF502B4DD0602B40F08C
:101480009580D1F804E0C968DCF82030DCF8202031
:1014900022F01002CCF82020DCF8182022F4704250
:1014A00042EA013123F0A002CCF8181042EA0E11F2
:1014B000CCF820104FF68872DCF80810CFF6CF7207
:1014C000114067311AE000BF5CD0B3F5801F0BD02C
:1014D0006CE000BF3021C0F210018B4204D04021EB
:1014E000C0F210018B4261D14FF68872DCF808100F
:1014F000CFF6CF721140194341F00701CCF8081024
:101500000022012180F83D10002180F83C10BDE848
:1015100080401046704700BFD1F804E0C968DCF88D
:101520002030DCF8202022F00102CCF82020DCF86A
:10153000182022F0F00242EA011123F00A02CCF84E
:10154000181042EA0E01CCF820104FF68872DCF831
:101550000810CFF6CF7211405731CFE701F1040EDA
:101560009EE80C40DCF808101A4321F47F4142EA5F
:101570000E221143CCF80810DCF8081041F0770176
:10158000BCE700BF01F1040E9EE80C40DCF8081037
:101590001A4321F47F4142EA0E221143CCF808108D
:1015A000DCF8081041F48041A8E700BF0122A8E759
:1015B000002857D02DE9F04381B0044690F83D0053
:1015C0000D4628B9002084F83C00204600F04CF875
:1015D000022084F83D0020684BF6F872CFF6FE72C8
:1015E000816811408160211D01F0B2FB20684FF637
:1015F000FF79D0F808808369D0F820E0AF69D5E999
:10160000026223EA090346EA07264FF6FC47BE4377
:10161000EF691A432B6932432E6A42EA07226F6947
:10162000D5E9001C42EA03122EF0AA0341EA0801A0
:1016300081604CEA030142EA0632826141EA071105
:101640000162012084F8480084F83E0084F83F00DD
:1016500084F8440084F8450084F83D00002001B07F
:10166000BDE8F0830120704780B586B040F6FF32B8
:101670000068C4F20002002190420591CDE90311F7
:10168000CDE901112ADC40F20041C4F20001884298
:101690004ED040F60001C4F2000188427CD144F2F1
:1016A000E0404FF44052C5F60200816841F0040169
:1016B0008160816801F0040100910099016841F0A6
:1016C00008010160006800F0080000900020009907
:1016D000C5F60200022100F5406052E040F60041EC
:1016E000C4F20001884231D040F20041C4F201014D
:1016F000884251D144F2E040C022C5F6020001699F
:1017000041F002010161016901F0020100910099BB
:10171000016841F004010160006800F004000090DD
:1017200000200099C5F60200032100F5006028E0C2
:1017300044F2E040C022C5F60200816841F0020197
:101740008160816801F002010CE000BF44F2E040DA
:101750000322C5F60200816841F0080181608168BA
:1017600001F0080100910099016841F00101016058
:101770000068022100F00100009000980020C5F6EA
:101780000200019202220292012203920022CDE97C
:10179000042101A9FEF7A8FE06B080BD00000000EC
:1017A00080B590F83E20042990F83F3090F844E04E
:1017B00090F845C00AD0B9B9012A4FF0010208BF1C
:1017C000BEF1010F34D0104680BD00BF0122012BB5
:1017D00008BFBCF1010FF6D1022180F83F1080F85C
:1017E0004510006820E000BF012A4FF0010208BF49
:1017F000012BE8D1BEF1010F08BFBCF1010FE2D10E
:101800004FF0020280F83E2080F83F2080F844200C
:1018100080F8452089B10068016A21F00101016268
:10182000016A41F00101016210216FF0100208E02D
:10183000022180F83E1080F84410006801216FF00A
:101840000102036A1A400262026A114301620168DE
:10185000002241F001010160104680BD000000003F
:1018600090F83C30012B01D1022070474FEAB202C0
:10187000052A00F223812DE9F041DFE812F007008C
:10188000BB00570095003100F90000BF036843F624
:10189000FF76C4F201061C6AB3421A6A24F00204FD
:1018A00022F001021A621A46D3F804C052F818EF67
:1018B0008D6844EA0504D1F8008040F3818144F248
:1018C0000007C4F20107BB4200F0858144F600071F
:1018D000C4F20107BB4200F07E8144F2004776E18A
:1018E000036843F6FF77C4F20107D3F820C0BB4278
:1018F0001A6A22F480321A621A465C6852F8546FEF
:101900000D68D1F808E040F3DF8044F20007C4F22C
:101910000107BB4200F0E38044F60007C4F2010770
:10192000BB4200F0DC8044F20047D4E0036840F2A0
:10193000004E43F48067C4F2010E1C6A77451A6AB0
:1019400024F4007422F480721A621A465D6852F818
:101950001CCF8E6844EA062407D1CE6840F2FF47C8
:10196000360224F44064BE43344343F6FF76D1F894
:101970000080C4F20106B34240F3D28044F2000773
:10198000C4F20107BB4200F0D28044F60007C4F263
:101990000107BB4200F0CB8044F20047C4F20107CC
:1019A000BB4200F0C480C9E0036843F6FF77C4F28D
:1019B0000107D3F820C0BB421A6A22F480521A628F
:1019C0001A465C6852F81C6F0D68D1F808E040F3C5
:1019D000CD8044F20007C4F20107BB4200F0D18081
:1019E00044F60007C4F20107BB4200F0CA8044F28B
:1019F0000047C2E0036840F2004E43F48067C4F23F
:101A0000010E1C6A77451A6A24F0200422F01002A5
:101A10001A621A465D6852F818CF8E6844EA0614B6
:101A200007D1CE686FF0400724F0C00407EA06161D
:101A3000344343F6FF76D1F80080C4F20106B34286
:101A400040F3E08044F20007C4F20107BB4200F01B
:101A5000E08044F60007C4F20107BB4200F0D980E1
:101A600044F20047C4F20107BB4200F0D280D7E045
:101A7000036843F6FF77C4F20107D3F820C0BB42E6
:101A80001A6A22F480121A621A465C6852F8546F7D
:101A90000D68D1F808E040F3058144F20007C4F274
:101AA0000107BB4200F0098144F60007C4F20107B8
:101AB000BB4200F0028144F20047FAE0012100221B
:101AC00080F83C20084670470027C4F20107BB425B
:101AD00005D040F20047C4F20107BB4204D14F6970
:101AE00024F4803444EA07244FF68C775C60CFF608
:101AF000FE7703373E402CF4003746EA05045C6568
:101B00004E6809699E6547EA0E471F625F6D47F0A0
:101B100008075F655F6D27F004075F65EEE000BFB3
:101B20000027C4F20107BB4201D0734506D1D1E9B9
:101B30000576374325F4405646EA07154FF68C776D
:101B40005D60CFF6FE7707EA0C0747EA0807DF611A
:101B50004F680969DF631C62DF6947F00807DF61CE
:101B6000DF6927F00407DF61C8E000BF0027C4F287
:101B70000107BB4205D040F20047C4F20107BB4257
:101B800004D14F6924F4804444EA871448F6FF479F
:101B90005C60CFF6FF673E402CF4005746EA052410
:101BA000DC614E6809691E6447EA0E371F62DF690F
:101BB00047F40067DF61DF6927F48067DF619CE03D
:101BC0000027C4F20107BB4205D040F20047C4F22F
:101BD0000107BB4205D1CF6824F00C0427F00407AD
:101BE0003C43B34234DD44F20006C4F20106B34282
:101BF00039D044F60006C4F20106B34233D044F2B1
:101C000000462CE00027C4F20107BB4201D0734517
:101C100006D1D1E90576374325F4406646EA8705C3
:101C200048F6FF475D60CFF6FF6707EA0C0747EA13
:101C300008279F614F6809699F631C629F6947F489
:101C400000679F619F6927F480679F6155E000BF2F
:101C50000026C4F20106B34205D040F20046C4F2A9
:101C60000106B34206D12CF44077D1E9056537432C
:101C700047EA050C4FF68C75C3F804C0CFF6FE7525
:101C80000EEA050747EA08079F614F6809695F6325
:101C90001C629F6947F008079F619F6927F004074E
:101CA0009F612BE00027C4F20107BB4205D040F240
:101CB0000047C4F20107BB4204D14F6924F48024D9
:101CC00044EA872448F6FF475C60CFF6FF6707F5D4
:101CD00040773E402CF4001746EA05245C654E68C8
:101CE0000969DE6547EA0E571F625F6D47F40067BA
:101CF0005F655F6D27F480675F65090213681943AC
:101D000011600021BDE8F041002280F83C20084627
:101D1000704700000000000060B310B5044690F862
:101D20003D0028B9002084F83C00204600F024F84B
:101D3000022084F83D002068211D01F009F80120EF
:101D400084F8480084F83E0084F83F0084F840009E
:101D500084F8410084F8420084F8430084F8440089
:101D600084F8450084F8460084F8470084F83D0074
:101D7000002010BD012070477047000000000000E7
:101D800080B5C9B10B1F4FF03F0C4FEAB30E432291
:101D9000BEF1040F38BF0CEBB302825C012A13D1F1
:101DA000BEF1030F1ED8DFE80EF00319111500BFB6
:101DB000022280F83F2018E090F83E20012A03D14B
:101DC000022280F83E2010E0012080BD022280F82F
:101DD00041200AE0022280F8422006E0022280F838
:101DE000402002E0022280F84320026801F01F0038
:101DF000012101FA00F0116A814311624FF6FF716F
:101E0000C4F200018A42116A40EA0100106219DC42
:101E100040F2FF70C4F2000082422FDD40F6000065
:101E2000C4F20000824243D040F60040C4F20000F9
:101E300082423DD041F60000C4F20000824237D019
:101E400048E000BF43F6FF700021C4F20100C4F275
:101E50000101824244F20000C4F2010018DD824216
:101E60001ED044F60003C4F201039A4218D044F293
:101E70000043C4F201039A4212D02BE0B2F1804F2A
:101E800016D040F20040C4F20000824210D021E09F
:101E90008A4205D040F20043C4F201039A4219D1AC
:101EA000536C8A4243F40041516418BF82420BD103
:101EB00007219068C0F2010101400020062918BFE7
:101EC000B1F5803F06D180BD40F20040C4F2010070
:101ED0008242EDD0106840F001001060002080BD0B
:101EE000FEE70000000000002DE9F0472DED108B0B
:101EF00002880C464CF6CD48B0F9029051424CF69F
:101F0000CC420FFA81FE8188CFF6FF72B0F906A0AD
:101F100040F27003CFF6FF789645C1F10001C2F29E
:101F200000430DDC9A6843F23337BA4224DB9A69E6
:101F300002F1010C09B2C145C3F818C011DB22E05F
:101F400043F233324FF0000C964505DB9A68424568
:101F5000BCBF9A69A2F1010C09B2C145C3F818C00F
:101F600011DADA6843F23335AA4225DBDA69561C06
:101F70004145DE6114DB23E04FF0000C09B2C1459E
:101F8000C3F818C0EDDB43F233320026914504DB81
:101F9000DA684245BCBFDA69561E4145DE610FDA98
:101FA0001A6943F23335AA4220DB1A6A571CC2452C
:101FB0001F6212DB1EE000BF00264145DE61EFDB41
:101FC00043F233320027914204DB1A694245BCBF19
:101FD0001A6A571EC2451F620CDA5A6943F233353A
:101FE000AA4213DB5D6A013511E000BF0027C2453C
:101FF0001F62F2DB43F23332002592455A6906DB59
:102000004245BCBF5D6A013D01E000BF0025C6EB53
:102010000646D8684E4493ED000A301A1E6901EE58
:10202000100AC7EB07400844B7EEC00A801BCCEB90
:102030000C4702EE100AB8EEC11BC5EB0540774411
:1020400050445D62B8EEC22B801A81EE003B9A6864
:10205000C3E902E982EE001B93ED012AB7EEC22A22
:1020600031EE033BC3E9041A32EE022B83EE028BFE
:1020700002EE100AB81A03EE100AB8EEC22BB8EE40
:10208000C33B82EE002B83EE000BB6EE003B31EE3D
:10209000400B32EE412B20EE03BBB0EE480B22EE9C
:1020A00003CB01F031F8B0EE409BB0EE480B01F0ED
:1020B00083F82BEE40EBB0EE480BA9EE0CEB01F0F1
:1020C0007BF8B0EE409BB0EE480B01F01DF8B4F980
:1020D00004509FED33DB01EE105A2BEE40FBB8EEBF
:1020E000C11BA9EE4CFB81EE0DABB0EE4A0B01F02B
:1020F0000BF8B0EE409BB0EE4A0B01F05DF82FEE0E
:10210000400B2088A9EE0E0B20EE0D0BBDEEC00B90
:1021100010EE101AB0EE4A0B0844208001F04CF883
:10212000B0EE409BB0EE4A0B00F0EEFF2FEE000B3E
:10213000608840F6454728EE0D1BA9EE0E0BBDEE5C
:10214000C11B20EE0D0BBDEEC00B10EE101A2CEED5
:102150000D0B421811EE100A9FED131B6280BDEEAD
:10216000C00B2BEE011B29180BB2BB4241F68B03AF
:10217000C8BFC91A4FF2BB37BDEEC11B0AB2CFF6BA
:10218000FF77BA42B8BF19446081A18010EE101ADF
:10219000E18011EE101A2181BDEC108BBDE8F087B3
:1021A0000000000000408F400000000000408FC091
:1021B00040F2700049F2F301C2F20040C4F224512F
:1021C00001604FF07B5141600021C0E90211C0E97C
:1021D0000411C0E90611C0E90811704700000000B1
:1021E000B0F900209FED2B1AB0F90230B0F90400CD
:1021F00000EE102A9FED287A02EE103A03EE100A44
:1022000040F27000B8EEC00AC2F20040B8EEC22A36
:10221000B8EEC33A90ED014A80EE010A82EE012A3F
:1022200083EE011A30EE423A30EE020A90ED002AB7
:10223000B0EE435AA4EE013AB0EE406AA4EE410A71
:10224000A4EE415AA4EE016A20EE020A25EE025ADB
:1022500026EE024A23EE022A85EE075A84EE073A5A
:1022600080EE070ABDEEC51ABDEEC33A82EE072A1C
:1022700011EE100ABDEEC00A088013EE100ABDEE82
:10228000C21A488010EE100A888011EE100AC88029
:10229000704700BF00007A44000048420000000080
:1022A0002DE9F04F87B044F2E0400025C5F602006A
:1022B0000695CDE90455CDE90255016840F20008C4
:1022C00041F0040101600168C5F6020801F0040153
:1022D00001910199016841F080010160016808F5F0
:1022E000006901F0800101910199016841F001014B
:1022F00001600168002201F001010191019901686A
:1023000041F010010160016842F6104401F0100133
:1023100001910199016841F008010160016801F033
:10232000080101910199016841F002010160006812
:1023300042F6104100F00200019001984846FEF775
:10234000AFF9102100224046FEF7AAF908F58056A1
:102350004FF4404100223046FEF7A2F908F58067AD
:102360004FF4C071002238464FF4C07AFEF798F956
:10237000029402AC484621464FF0010B0595CDE989
:1023800003B5FEF7B1F810202146CDE9020B404617
:10239000CDE90455FEF7A8F84FF440402146CDE9B9
:1023A000020B3046CDE90455FEF79EF8384621462B
:1023B000CDE902ABCDE90455FEF796F807B0BDE8CC
:1023C000F08F0000000000002DE9F04194B040F2D1
:1023D000F4000021C2F200400D91CDE90B11CDE9CE
:1023E0000811CDE90611CDE90411CDE90211CDE9BD
:1023F00000114FF080428160C0E9002142F6DF62A7
:102400008161C0E90321FEF78BFF08B1FEF74CF8AC
:102410004FF480500A9040F2F4000AA9C2F2004042
:10242000FEF7C6FF08B1FEF73FF840F2F400C2F233
:102430000040FFF771FC08B1FEF736F840F2F400F7
:1024400007A9C2F20040002407940994FEF700FF98
:1024500008B1FEF729F860206946CDE9000440F292
:10246000F4000022C2F2004002940494FFF7F8F94D
:1024700008B1FEF719F840F2F4006946C2F20040D4
:102480000422FFF7EDF908B1FEF70EF840F2F40070
:102490006946C2F200400822FFF7E2F908B1FEF7F0
:1024A00003F840F2F4046946C2F200440C222046CC
:1024B000FFF7D6F908B1FDF7F7FF20680026B0F165
:1024C000804F1396CDE9116610960F9602D014B086
:1024D000BDE8F08144F2E0400024C5F60200C5F6F4
:1024E00002040FAD4FF002080168012741F001011D
:1024F0000160016801F001010E910E99016841F03F
:10250000020101600068294600F002000E900E985A
:1025100048F20C000F902046CDE9108612961397D2
:10252000FDF7E2FF08202946CDE90F0804F5806099
:102530001397CDE91166FDF7D7FF14B0BDE8F08120
:1025400010B58CB040F2401040F20041C2F20040A1
:102550000024C4F200010194C0E900144FF6FF7199
:102560008460C0E9031403218461CDE903140121CF
:102570000F22CDE90514CDE9091403A90B92CDE989
:102580000724FFF715F808B1FDF78EFF40F2401061
:102590006946C2F2004000940294FEF759FE08B169
:1025A000FDF782FF0CB010BD10B58CB040F28C105E
:1025B00040F60001C2F200400024C4F20001019480
:1025C000C0E900144FF6FF718460C0E903140321D1
:1025D0008461CDE9031401210F22CDE90514CDE971
:1025E000091403A90B92CDE90724FEF7E1FF08B116
:1025F000FDF75AFF40F28C106946C2F20040009489
:102600000294FEF725FE08B1FDF74EFF0CB010BD99
:1026100010B58CB040F2D81040F60041C2F2004034
:102620000024C4F200010194C0E900144FF0FF310E
:102630008460C0E9031403218461CDE903140121FE
:102640000F22CDE90514CDE9091403A90B92CDE9B8
:102650000724FEF7ADFF08B1FDF726FF40F2D810C2
:102660006946C2F2004000940294FEF7F1FD08B101
:10267000FDF71AFF0CB010BD10B58CB040F224204D
:1026800040F20041C2F200400024C4F20101029471
:10269000C0E900144FF6FF718460C0E90314032100
:1026A0000F22CDE9031401210B92CDE90514CDE9E8
:1026B000091403A9CDE90044C0E90544CDE9072484
:1026C000FEF776FF08B1FDF7EFFE40F224206946E1
:1026D000C2F200400294CDE90044FEF7B9FD08B112
:1026E000FDF7E2FE0CB010BDFEE7000000000000A8
:1026F00070B540F600040546B0F1FF3FC5F6020490
:102700000ADDA4F5006010210022FDF7C9FF1021A9
:10271000A5B1012209E000BFA4F50060102101224B
:102720006D42FDF7BDFF102100222046FDF7B8FFE6
:1027300042F6DF66B54238BF2E4604E0002220464E
:102740000026FDF7ADFF40F2F400C2F20040006841
:10275000466370BD0000000070B540F200440546BD
:10276000B0F1FF3FC5F602040ADD802100222046B9
:10277000FDF796FF4FF48071A5B1012209E000BF7B
:102780008021012220466D42FDF78AFF4FF48071BF
:1027900000222046FDF784FF42F6DF66B54238BFCF
:1027A0002E4604E0002220460026FDF779FF40F285
:1027B000F400C2F200400068866370BD00000000B3
:1027C00070B540F600040546B0F1FF3FC5F60204BF
:1027D0000ADD4FF4806100222046FDF761FF4FF4CF
:1027E0000061ADB1012209E04FF480610122204671
:1027F0006D42FDF755FF4FF4006100222046FDF7C2
:102800004FFF42F6DF66B54238BF2E4605E000BFF7
:10281000002220460026FDF743FF40F2F400C2F2FA
:1028200000400068C66370BD70B541F20004054603
:10283000B0F1FF3FC5F602040ADD4FF480410022EB
:102840002046FDF72DFF4FF40041ADB1012209E014
:102850004FF48041012220466D42FDF721FF4FF4E5
:10286000004100222046FDF71BFF42F6DF66B5421D
:1028700038BF2E4605E000BF002220460026FDF7A7
:102880000FFF40F2F400C2F200400068066470BD21
:10289000F0B581B040F2F4040021C2F200440027F8
:1028A0002046FFF76DFA04212046FFF769FA082158
:1028B0002046FFF765FA0C212046FFF761FA40F643
:1028C00000051021C5F602050022A5F50060FDF700
:1028D000E7FE102100222846FDF7E2FE2068A5F55C
:1028E00080668021002247633046FDF7D9FE4FF411
:1028F000807100223046FDF7D3FE20684FF48061DE
:10290000002287632846FDF7CBFE4FF400610022CA
:102910002846FDF7C5FE206805F500654FF48041A7
:102920000022C7632846FDF7BBFE4FF4004100229A
:102930002846FDF7B5FE2068076401B0F0BD000031
:10294000FEE700000000000040F29802411AC2F2C7
:1029500000424FF4FA734FF4FA6C9FED1C2A506852
:10296000081A584301FB0CF300EE100A906801EEC0
:10297000103A0844B0F57A7F4FF61843B8EEC00A13
:10298000CFF6FF73B8EEC11AA8BF4FF47A7020EEED
:10299000020A10F57A7FC8BF0346A1EE020A10684A
:1029A00093605160BDEEC00A10EE103A184442F632
:1029B000DF639842106006DC4DF22113CFF6FF73FF
:1029C0009842A8BF70471846136070470AD7233C47
:1029D00040F29802411AC2F200424FF4FA7340F2F8
:1029E0006C7C9FED1C2A1069081A584301FB0CF3FC
:1029F00000EE100A506901EE103A0844B0F57A7FF3
:102A00004FF61843B8EEC00ACFF6FF73B8EEC11AFE
:102A1000A8BF4FF47A7020EE020A10F57A7FC8BF83
:102A20000346A1EE020AD06853611161BDEEC00AEF
:102A300010EE103A184442F6DF639842D06006DC8C
:102A40004DF22113CFF6FF739842A8BF7047184686
:102A5000D36070470AD7233C40F29802411AC2F271
:102A600000424FF4C87340F6C41C9FED1C2AD06985
:102A7000081A584301FB0CF300EE100A106A01EE2D
:102A8000103A0844B0F57A7F4FF61843B8EEC00A02
:102A9000CFF6FF73B8EEC11AA8BF4FF47A7020EEDC
:102AA000020A10F57A7FC8BF0346A1EE020A9069B8
:102AB0001362D161BDEEC00A10EE103A184442F61E
:102AC000DF639842906106DC4DF22113CFF6FF736D
:102AD0009842A8BF70471846936170470AD7233CB5
:102AE00040F29802411AC2F200424FF4C87340F615
:102AF000C41C9FED1C2A906A081A584301FB0CF372
:102B000000EE100AD06A01EE103A0844B0F57A7F60
:102B10004FF61843B8EEC00ACFF6FF73B8EEC11AED
:102B2000A8BF4FF47A7020EE020A10F57A7FC8BF72
:102B30000346A1EE020A506AD3629162BDEEC00A5A
:102B400010EE103A184442F6DF639842506206DCF9
:102B50004DF22113CFF6FF739842A8BF7047184675
:102B6000536270470AD7233C704700000000000002
:102B70007047000000000000FDF7AABD0000000043
:102B8000B0B59CB044F6180409A84C21C5F602045F
:102B9000FDF70CFC02200025CDE90755CDE90555D0
:102BA000CDE90355CDE90155FDF79EFE009520685E
:102BB00040F440402060206800F44040009040F223
:102BC0002C40C5F60000016841F001010160006879
:102BD00000F00100009000982068800409D420686B
:102BE00080045CBF20685FEA804002D420688004D3
:102BF000F2D50220099001210C91129000250421A8
:102C000014913C214024CDE91510CDE917000C208A
:102C10000D94CDE9190509A813951B95FEF748F801
:102C200020B1EFF3108072B6FEE700BF3F200190A5
:102C300003200421CDE9020508200694CDE904040F
:102C40004FF48060CDE9070401A8FDF775FE28B1B7
:102C5000EFF3108072B600BFFEE700BF1CB0B0BD3E
:102C60004EF6885042F2000CCEF20000C5F2002C65
:102C7000016841F470010160DCF8000000F00F0011
:102C8000062806D8DCF80000072161F30300CCF821
:102C9000000044F200404EF67F52C5F60200CEF628
:102CA000F622016841F00101016000210161036821
:102CB0001A400260DCF80020120706D5DCF800207C
:102CC000072363F30302CCF8002040F20022816165
:102CD000C161C0F20222016282620022C0F2FF12D0
:102CE000C26240F28022C0F2011202634163826339
:102CF000C16302644164026822F48022026041F2EE
:102D000000020166C5F600421268B1EB527F05D1A0
:102D100048F208110122C5F200110A60D0F8D4105F
:102D2000C90448BF7047D0F8D41043F2D20241F42E
:102D30008051C0F8D41044F20001C5F200210A60AD
:102D4000D0F8D41021F48051C0F8D410704700009E
:102D500040F6FF32C4F200029042026810DCB0F18B
:102D6000804F1ED040F20043C4F20003984218D0B6
:102D700040F60003C4F20003984212D015E000BFF1
:102D800040F60043C4F2000398420AD040F20043E8
:102D9000C4F20103984204D00023C4F20103984214
:102DA00003D122F070024B681A434FF6FF7343F6CB
:102DB000FF7CC4F20003C4F2010C984210DD6045B0
:102DC00028DD44F20003C4F2010398422DD044F6FA
:102DD0000003C4F20103984227D044F2004320E0EC
:102DE00040F2FF73C4F20003984207DCB0F1804F59
:102DF0001BD040F20043C4F2000314E040F600038D
:102E0000C4F20003984210D040F60043C4F200031D
:102E100009E000BF0023C4F20103984205D040F24C
:102E20000043C4F20103984203D122F44072CB68FC
:102E30001A4310B5D1F814E060450B688C68C46281
:102E4000836213DD44F20003C4F20103984218D0F8
:102E500044F60003C4F20103984212D044F2004346
:102E6000C4F2010398420CD00DE000BF0023C4F26D
:102E70000103984205D040F20043C4F20103984296
:102E800001D109690163016841F004010160012178
:102E9000416122F0800141EA0E01016010BD000095
:102EA000FEE700000000000086B001200290FDF760
:102EB000ABFC0020019048F21F70049040F201101A
:102EC000059002A800210391FDF76EFC0420FDF798
:102ED000ABFCFDF70DFCFFF753FEFFF7E1F9FFF741
:102EE00073FAFFF72DFBFFF75FFBFFF791FBFFF78F
:102EF000C3FBFFF7CDFCFFF75BF940F2C80B40F2D4
:102F00004018C2F2004BC2F200484FF60C603C2160
:102F1000ABF808004046FEF743FC40F28C163C211B
:102F2000C2F200463046FEF73BFC40F2D8173C2187
:102F3000C2F200473846FEF733FC40F224253C211C
:102F4000C2F200452846FEF72BFCD8F800004FF4EB
:102F5000004141623068416238684162286800255A
:102F6000416206E00198AAEB0000B0F5FA7F80F01C
:102F7000A780FDF7A5FB8246401B1428F2D340F240
:102F8000401040F28C11C2F20040C2F2004140F207
:102F900024230068C2F20043426A0E6840F2D8114E
:102FA000C2F20041756A0F684FF40041D7F82480DF
:102FB0001C68D4F824C0416282F40040716203B2FC
:102FC00085F4004002B2962547F6FF70962BA8BF05
:102FD0002B4688EA00065846796213F1960F616223
:102FE0006FF09504D8BF234630F80E1F962AABF831
:102FF00000308CF40047A8BF2A463FB21944731C26
:1030000012F1960F1BB2D8BF2246962BA8BF2B46B3
:103010000180BBF81010ABF8022013F1960FD8BF57
:103020002346962F1144A8BF2F46ABF81010BBF8CB
:103030001210ABF8043017F1960F1944D8BF274689
:10304000ABF81210BBF81410ABF806703944ABF8AB
:1030500014100BF11E01FEF747FF0BF108000BF1F6
:103060001601FFF7BDF8BBF90010BBF91600FFF71A
:103070006BFCBBF918200546BBF902101046FFF7A0
:10308000A7FCBBF91A20BBF9041006461046FFF74F
:10309000E3FCBBF91C208046BBF906101046FFF785
:1030A0001FFD81462846FFF723FB3046FFF754FB00
:1030B0004046FFF785FB4846FFF7B6FB554651E70C
:1030C00040F600004FF40051C5F60200FDF7E0FAAB
:1030D000CDF804A04DE703B401984100009850EAF0
:1030E000C12018BF04204A0D18BF40F0010040F273
:1030F000FF72B2EB515F08BF40F00200012808BF29
:10310000052002B07047000010B529499FED261B2D
:103110002DED020B84B0059820F000408842D8BF06
:103120009DED040B2DDD2349884209D1049840B957
:103130004FF00100FDF769F900F006FB06B010BD85
:1031400005DB9DED040B30EE000B06B010BD6846AC
:103150009DED040B00F088F810F0030004BF9DED16
:10316000021B9DED000B0CD001280ED09DED021B23
:103170009DED000B022810D0012000F095FA06B05A
:1031800010BD00F0F5F906B010BD9DED021B9DEDE0
:10319000000B012000F088FA01E000F0E9F9B1EE3F
:1031A000400B06B010BD0000000000000000000051
:1031B000FB21E93F0000F07F10B529499FED261B58
:1031C0002DED020B84B0059820F000408842DCBF52
:1031D00000209DED040B2EDD2249884209D1049880
:1031E00040B94FF00100FDF710F900F0ADFA06B05C
:1031F00010BD05DB9DED040B30EE000B06B010BDDD
:1032000068469DED040B00F02FF810F003000DD080
:10321000012814D09DED021B9DED000B022816D055
:1032200000F0A6F9B1EE400B06B010BD9DED021BFB
:103230009DED000B012000F037FA06B010BD9DEDAA
:10324000021B9DED000B00F093F906B010BD0120AC
:1032500000F02AFAE6E7000000000000000000008D
:10326000FB21E93F0000F07F2DE9F14F04462DEDF1
:10327000020B2DED048B94B09FED9D0B80ED020BA6
:10328000199E9D4826F0004585420ADC9DED180BED
:10329000002084ED000B14B0BDEC048B03B0BDE83E
:1032A000F08F96489FED969B9FED978BA84225DD6A
:1032B00097489FED991B9FED9A2B9DED180B002EC3
:1032C0000DDD30EE490B854212BF30EE480B30EE7B
:1032D000410B30EE420B84ED000B0120DBE730EEBA
:1032E000090B854212BF30EE080B30EE010B30EEB9
:1032F000020B84ED000B4FF0FF30CCE78A48A84268
:1033000053DB9DED180B51EC100B00F035FA41EC3E
:10331000100BB0EE401B9FED862BB6EE000B01EEBE
:10332000020BFDEEC00B10EE903A00EE903AB8EEB4
:10333000E02BB0EE410B02EE490B22EE081BDFF84A
:10334000F8C1290D0120FC4430EE411B84ED001B27
:1033500003281DD011EE902A00EB4015113DC2F359
:103360000A528A1A954213DAB0EE403B0CEB001277
:1033700092ED000B20EE021B33EE410B33EE403B8F
:1033800033EE411B92ED023B12EE031B401CDBE7C8
:10339000002EA8BF1846BFF67EAF94ED000BB1EE2D
:1033A000400B84ED000B584275E7C6F3130040F460
:1033B000801EC6F30A50A0F2F530471100F01F0539
:1033C000C5F12000DDF860B013900020089009904E
:1033D00005200DF1080C5949002D07EB0002794436
:1033E00008BF51F8221009D051F8223001EB8201B8
:1033F000AB404A68139922FA01F11943A1FB0E264A
:10340000A1FB0B131A449A4234BF0123002303EBA0
:1034100006080CEB8003D3E901A60E448E4234BFAC
:103420000121002192448A4411B1924502D903E05E
:10343000924501D2012100E00021C3E901A64144E7
:103440004CF82010011EA0F10100C4DC04989DED91
:10345000050A00F10050810F0498DDED060A800096
:103460009DED072A01EE100AB8EEC13BB8EE401BF5
:103470009FED334B21EE041BB8EE600B9FED324BFA
:1034800020EE040BB8EE422B9FED314B22EE042BC5
:1034900030EE024B34EE014B34EE034B8DED004B1E
:1034A000002000909DED004B34EE433B33EE411B7A
:1034B00031EE400B32EE401B9DED000B9FED262BB5
:1034C00020EE020B9FED262B01EE020B9DED001B63
:1034D0009FED252B01EE020B199810F0004F1CBF39
:1034E0004942B1EE400B84ED000B0846D3E60000E4
:1034F0000000000000000000FB21E93F7CD90240F1
:1035000000004054FB21F93F3163621A61B4D03DA1
:10351000FB21F93F000000000000601A61B4D03DBB
:103520007370032E8A19A33BFB2139410000000070
:1035300083C8C96D305FE43F960400002E0400008C
:10354000000000000000103E000000000000103CE1
:10355000000000000000103A3326A611460B113C73
:10356000182D4454FB21F93D00000054FB21F93D86
:1035700010B52DED040B2DED048B82B0B0EE419B08
:10358000079820F00044B4F1795F0FDA9DED060B47
:10359000BDEEC00B10EE100A002801BFB7EE000B05
:1035A00002B0BDEC048B04B008BF10BD9DED060B4E
:1035B00020EE008BB0EE480B1B480621784400F04B
:1035C00039F820EE080B28EE000B9DED061B01EEEE
:1035D000490BB6EE001B28EE011B1448B7EE002B7A
:1035E0008442BCBF31EE400B32EE400B16DB10487C
:1035F000A042BCBFB5EE023B8DED003B06DBA4F55F
:1036000000100190002000909DED003B31EE431B27
:1036100032EE432B31EE400B32EE400B02B0BDECEC
:10362000048B04B010BD0000F00100003333D33F21
:103630000000E93FB0EE401B491E00EBC10292EDD5
:10364000000B31F006020DD0491E00EBC10292EDD5
:10365000002BB0EE403BB0EE420B03EE010B31F01D
:103660000602F1D1022914D004290AD0062918BF74
:10367000704790ED0A2B00EE012B90ED080B02EE47
:10368000010B90ED062B00EE012B90ED040B02EEEA
:10369000010B90ED022B00EE012B90ED000B02EEE2
:1036A000010B70470000000031B504462DED040BFE
:1036B0002DED068BB0EE419B07989DED060B20F09B
:1036C0000040B0F1795F0DDA51EC100BFFF703FD0C
:1036D000042808BF00F044F89DED060BBDEC068BF6
:1036E00005B030BD20EE008B28EE00ABB0EE480BED
:1036F000114805217844FFF79DFF9FED111B8CB108
:10370000B6EE002B29EE022B0AEE402B18EE029BA0
:103710000AEE419B9DED060B30EE490BBDEC068B8E
:1037200005B030BD08EE001B9DED060B0AEE010B47
:10373000BDEC068B05B030BDB801000000000000F4
:10374000495555555555C5BF9FED031B81EE010BDE
:1037500070470000000000000000000000000000B2
:103760009FED030B20EE000B7047000000000000EF
:10377000000000000000001082B0CDE9000121F03F
:10378000004001909DED000B02B051EC100B704712
:10379000F1EE100A4FF6FF71C0F2C03120EA0100CD
:1037A00040F04070E1EE100A704700000000000099
:1037B0004C5555555555A53F7751C1166CC156BF4F
:1037C0009015CB19A001FA3EAD529C804F7E92BE5F
:1037D000C4B1B4BD9EEE213ED43888BEE9FAA8BD7E
:1037E00000004054FB21F93F3163621A61B4D03DBF
:1037F0000000601A61B4D03D7370032E8A19A33B98
:103800000000002E8A19A33BC14920259A837B39E9
:1038100000000000000000006E83F9A22915444E4C
:10382000D15727FCC0DD34F5999562DB4190433CCC
:10383000AB6351FE61C5BBDE3A6E24B7E0D24D42A8
:10384000EA2E49061C92D1091CEB1DFE3EA729B1A8
:10385000F53582E88444BB2E26709CE9417E5FB436
:1038600039D69139F43953838B5F849C3B28F9BD59
:10387000FF97F81F0F9805DE8B112FEF1F6D0A5A67
:10388000CF7E366DB709CB27663F464F2DEA5F9E48
:10389000C7BA27757BF1E5EBF739073DEA92528A03
:1038A000B15FFB6B085D8D1F4630035600000000C2
:1038B000A6F810111111813FD561C119A0012ABFCD
:1038C0007DFEB157E31DC73EEB9C2B8AE6E55ABE51
:1038D0007CD5CF5A3AD9E53D00000000010203042F
:1038E0000102030406070809083900080000002443
:1038F00010000000FC020008183900081000002425
:10390000680800001C03000801000000100000000F
:083910000090D0030090D003E9
:040000050800029954
:00000001FF
